{
  "_format": "hh-sol-artifact-1",
  "contractName": "ZSwap",
  "sourceName": "contracts/ZSwap.sol",
  "abi": [
    {
      "inputs": [
        {
          "internalType": "address",
          "name": "_initialOwner",
          "type": "address"
        }
      ],
      "stateMutability": "nonpayable",
      "type": "constructor"
    },
    {
      "inputs": [
        {
          "internalType": "address",
          "name": "owner",
          "type": "address"
        }
      ],
      "name": "OwnableInvalidOwner",
      "type": "error"
    },
    {
      "inputs": [
        {
          "internalType": "address",
          "name": "account",
          "type": "address"
        }
      ],
      "name": "OwnableUnauthorizedAccount",
      "type": "error"
    },
    {
      "inputs": [],
      "name": "ReentrancyGuardReentrantCall",
      "type": "error"
    },
    {
      "inputs": [
        {
          "internalType": "address",
          "name": "token",
          "type": "address"
        }
      ],
      "name": "SafeERC20FailedOperation",
      "type": "error"
    },
    {
      "anonymous": false,
      "inputs": [
        {
          "indexed": false,
          "internalType": "uint256",
          "name": "oldFee",
          "type": "uint256"
        },
        {
          "indexed": false,
          "internalType": "uint256",
          "name": "newFee",
          "type": "uint256"
        }
      ],
      "name": "FeeUpdated",
      "type": "event"
    },
    {
      "anonymous": false,
      "inputs": [
        {
          "indexed": true,
          "internalType": "address",
          "name": "user",
          "type": "address"
        },
        {
          "indexed": true,
          "internalType": "address",
          "name": "token0",
          "type": "address"
        },
        {
          "indexed": true,
          "internalType": "address",
          "name": "token1",
          "type": "address"
        },
        {
          "indexed": false,
          "internalType": "uint256",
          "name": "amount0",
          "type": "uint256"
        },
        {
          "indexed": false,
          "internalType": "uint256",
          "name": "amount1",
          "type": "uint256"
        },
        {
          "indexed": false,
          "internalType": "uint256",
          "name": "liquidity",
          "type": "uint256"
        }
      ],
      "name": "LiquidityAdded",
      "type": "event"
    },
    {
      "anonymous": false,
      "inputs": [
        {
          "indexed": true,
          "internalType": "address",
          "name": "user",
          "type": "address"
        },
        {
          "indexed": true,
          "internalType": "address",
          "name": "token0",
          "type": "address"
        },
        {
          "indexed": true,
          "internalType": "address",
          "name": "token1",
          "type": "address"
        },
        {
          "indexed": false,
          "internalType": "uint256",
          "name": "amount0",
          "type": "uint256"
        },
        {
          "indexed": false,
          "internalType": "uint256",
          "name": "amount1",
          "type": "uint256"
        },
        {
          "indexed": false,
          "internalType": "uint256",
          "name": "liquidity",
          "type": "uint256"
        }
      ],
      "name": "LiquidityRemoved",
      "type": "event"
    },
    {
      "anonymous": false,
      "inputs": [
        {
          "indexed": true,
          "internalType": "address",
          "name": "previousOwner",
          "type": "address"
        },
        {
          "indexed": true,
          "internalType": "address",
          "name": "newOwner",
          "type": "address"
        }
      ],
      "name": "OwnershipTransferred",
      "type": "event"
    },
    {
      "anonymous": false,
      "inputs": [
        {
          "indexed": true,
          "internalType": "address",
          "name": "token0",
          "type": "address"
        },
        {
          "indexed": true,
          "internalType": "address",
          "name": "token1",
          "type": "address"
        }
      ],
      "name": "PairCreated",
      "type": "event"
    },
    {
      "anonymous": false,
      "inputs": [
        {
          "indexed": true,
          "internalType": "address",
          "name": "user",
          "type": "address"
        },
        {
          "indexed": true,
          "internalType": "address",
          "name": "tokenIn",
          "type": "address"
        },
        {
          "indexed": true,
          "internalType": "address",
          "name": "tokenOut",
          "type": "address"
        },
        {
          "indexed": false,
          "internalType": "uint256",
          "name": "amountIn",
          "type": "uint256"
        },
        {
          "indexed": false,
          "internalType": "uint256",
          "name": "amountOut",
          "type": "uint256"
        }
      ],
      "name": "Swap",
      "type": "event"
    },
    {
      "inputs": [],
      "name": "FEE_DENOMINATOR",
      "outputs": [
        {
          "internalType": "uint256",
          "name": "",
          "type": "uint256"
        }
      ],
      "stateMutability": "view",
      "type": "function"
    },
    {
      "inputs": [
        {
          "internalType": "address",
          "name": "tokenA",
          "type": "address"
        },
        {
          "internalType": "address",
          "name": "tokenB",
          "type": "address"
        },
        {
          "internalType": "uint256",
          "name": "amountADesired",
          "type": "uint256"
        },
        {
          "internalType": "uint256",
          "name": "amountBDesired",
          "type": "uint256"
        },
        {
          "internalType": "uint256",
          "name": "amountAMin",
          "type": "uint256"
        },
        {
          "internalType": "uint256",
          "name": "amountBMin",
          "type": "uint256"
        }
      ],
      "name": "addLiquidity",
      "outputs": [
        {
          "internalType": "uint256",
          "name": "amountA",
          "type": "uint256"
        },
        {
          "internalType": "uint256",
          "name": "amountB",
          "type": "uint256"
        },
        {
          "internalType": "uint256",
          "name": "liquidityMinted",
          "type": "uint256"
        }
      ],
      "stateMutability": "nonpayable",
      "type": "function"
    },
    {
      "inputs": [
        {
          "internalType": "address",
          "name": "tokenA",
          "type": "address"
        },
        {
          "internalType": "address",
          "name": "tokenB",
          "type": "address"
        }
      ],
      "name": "createPair",
      "outputs": [],
      "stateMutability": "nonpayable",
      "type": "function"
    },
    {
      "inputs": [
        {
          "internalType": "uint256",
          "name": "amountOut",
          "type": "uint256"
        },
        {
          "internalType": "uint256",
          "name": "reserveIn",
          "type": "uint256"
        },
        {
          "internalType": "uint256",
          "name": "reserveOut",
          "type": "uint256"
        }
      ],
      "name": "getAmountIn",
      "outputs": [
        {
          "internalType": "uint256",
          "name": "amountIn",
          "type": "uint256"
        }
      ],
      "stateMutability": "view",
      "type": "function"
    },
    {
      "inputs": [
        {
          "internalType": "uint256",
          "name": "amountIn",
          "type": "uint256"
        },
        {
          "internalType": "uint256",
          "name": "reserveIn",
          "type": "uint256"
        },
        {
          "internalType": "uint256",
          "name": "reserveOut",
          "type": "uint256"
        }
      ],
      "name": "getAmountOut",
      "outputs": [
        {
          "internalType": "uint256",
          "name": "amountOut",
          "type": "uint256"
        }
      ],
      "stateMutability": "view",
      "type": "function"
    },
    {
      "inputs": [
        {
          "internalType": "address",
          "name": "tokenA",
          "type": "address"
        },
        {
          "internalType": "address",
          "name": "tokenB",
          "type": "address"
        }
      ],
      "name": "getPair",
      "outputs": [
        {
          "internalType": "bool",
          "name": "exists",
          "type": "bool"
        },
        {
          "internalType": "uint256",
          "name": "reserve0",
          "type": "uint256"
        },
        {
          "internalType": "uint256",
          "name": "reserve1",
          "type": "uint256"
        },
        {
          "internalType": "uint256",
          "name": "totalLiquidity",
          "type": "uint256"
        }
      ],
      "stateMutability": "view",
      "type": "function"
    },
    {
      "inputs": [
        {
          "internalType": "address",
          "name": "tokenA",
          "type": "address"
        },
        {
          "internalType": "address",
          "name": "tokenB",
          "type": "address"
        },
        {
          "internalType": "address",
          "name": "user",
          "type": "address"
        }
      ],
      "name": "getUserLiquidity",
      "outputs": [
        {
          "internalType": "uint256",
          "name": "amount",
          "type": "uint256"
        },
        {
          "internalType": "uint256",
          "name": "share",
          "type": "uint256"
        }
      ],
      "stateMutability": "view",
      "type": "function"
    },
    {
      "inputs": [],
      "name": "owner",
      "outputs": [
        {
          "internalType": "address",
          "name": "",
          "type": "address"
        }
      ],
      "stateMutability": "view",
      "type": "function"
    },
    {
      "inputs": [
        {
          "internalType": "address",
          "name": "",
          "type": "address"
        },
        {
          "internalType": "address",
          "name": "",
          "type": "address"
        }
      ],
      "name": "pairs",
      "outputs": [
        {
          "internalType": "bool",
          "name": "exists",
          "type": "bool"
        },
        {
          "internalType": "uint256",
          "name": "reserve0",
          "type": "uint256"
        },
        {
          "internalType": "uint256",
          "name": "reserve1",
          "type": "uint256"
        },
        {
          "internalType": "uint256",
          "name": "totalLiquidity",
          "type": "uint256"
        }
      ],
      "stateMutability": "view",
      "type": "function"
    },
    {
      "inputs": [
        {
          "internalType": "uint256",
          "name": "amountA",
          "type": "uint256"
        },
        {
          "internalType": "uint256",
          "name": "reserveA",
          "type": "uint256"
        },
        {
          "internalType": "uint256",
          "name": "reserveB",
          "type": "uint256"
        }
      ],
      "name": "quote",
      "outputs": [
        {
          "internalType": "uint256",
          "name": "amountB",
          "type": "uint256"
        }
      ],
      "stateMutability": "pure",
      "type": "function"
    },
    {
      "inputs": [
        {
          "internalType": "address",
          "name": "tokenA",
          "type": "address"
        },
        {
          "internalType": "address",
          "name": "tokenB",
          "type": "address"
        },
        {
          "internalType": "uint256",
          "name": "liquidity",
          "type": "uint256"
        },
        {
          "internalType": "uint256",
          "name": "amountAMin",
          "type": "uint256"
        },
        {
          "internalType": "uint256",
          "name": "amountBMin",
          "type": "uint256"
        }
      ],
      "name": "removeLiquidity",
      "outputs": [
        {
          "internalType": "uint256",
          "name": "amountA",
          "type": "uint256"
        },
        {
          "internalType": "uint256",
          "name": "amountB",
          "type": "uint256"
        }
      ],
      "stateMutability": "nonpayable",
      "type": "function"
    },
    {
      "inputs": [],
      "name": "renounceOwnership",
      "outputs": [],
      "stateMutability": "nonpayable",
      "type": "function"
    },
    {
      "inputs": [
        {
          "internalType": "uint256",
          "name": "_swapFee",
          "type": "uint256"
        }
      ],
      "name": "setSwapFee",
      "outputs": [],
      "stateMutability": "nonpayable",
      "type": "function"
    },
    {
      "inputs": [
        {
          "internalType": "uint256",
          "name": "amountIn",
          "type": "uint256"
        },
        {
          "internalType": "uint256",
          "name": "amountOutMin",
          "type": "uint256"
        },
        {
          "internalType": "address[]",
          "name": "path",
          "type": "address[]"
        },
        {
          "internalType": "address",
          "name": "to",
          "type": "address"
        }
      ],
      "name": "swap",
      "outputs": [
        {
          "internalType": "uint256[]",
          "name": "amounts",
          "type": "uint256[]"
        }
      ],
      "stateMutability": "nonpayable",
      "type": "function"
    },
    {
      "inputs": [],
      "name": "swapFee",
      "outputs": [
        {
          "internalType": "uint256",
          "name": "",
          "type": "uint256"
        }
      ],
      "stateMutability": "view",
      "type": "function"
    },
    {
      "inputs": [
        {
          "internalType": "address",
          "name": "newOwner",
          "type": "address"
        }
      ],
      "name": "transferOwnership",
      "outputs": [],
      "stateMutability": "nonpayable",
      "type": "function"
    },
    {
      "inputs": [
        {
          "internalType": "address",
          "name": "",
          "type": "address"
        },
        {
          "internalType": "address",
          "name": "",
          "type": "address"
        },
        {
          "internalType": "address",
          "name": "",
          "type": "address"
        }
      ],
      "name": "userLiquidity",
      "outputs": [
        {
          "internalType": "uint256",
          "name": "amount",
          "type": "uint256"
        },
        {
          "internalType": "uint256",
          "name": "share",
          "type": "uint256"
        }
      ],
      "stateMutability": "view",
      "type": "function"
    }
  ],
  "bytecode": "0x60803460c557601f61174438819003918201601f19168301916001600160401b0383118484101760ca5780849260209460405283398101031260c557516001600160a01b0381169081900360c557801560af57600080546001600160a01b031981168317825560405192916001600160a01b03909116907f8be0079c531659141344cd1fd0a4f28419497f9722a3daafe3b4186f6b6457e09080a360018055601e60025561166390816100e18239f35b631e4fbdf760e01b600052600060045260246000fd5b600080fd5b634e487b7160e01b600052604160045260246000fdfe6080604052600436101561001257600080fd5b60003560e01c8063054d50d414610f455780633351733f14610c4f57806334e1990714610bb657806354cf2aeb14610b9857806366c3062714610b1d57806369454b8614610afa578063715018a614610aa157806385f8c25914610a075780638da5cb5b146109de5780639c8d8cf11461095a578063ad615dec14610939578063bc697eb81461054b578063c9c6539614610403578063d73792a9146103e6578063e2dc85dc146101f1578063e6a43905146101655763f2fde38b146100d757600080fd5b34610160576020366003190112610160576100f0610f78565b6100f8611562565b6001600160a01b0316801561014a57600080546001600160a01b03198116831782556001600160a01b0316907f8be0079c531659141344cd1fd0a4f28419497f9722a3daafe3b4186f6b6457e09080a3005b631e4fbdf760e01b600052600060045260246000fd5b600080fd5b34610160576040366003190112610160576040610191610183610f78565b61018b610f8e565b9061133e565b6001600160a01b039182166000908152600360208181528583209490931682529282529290922080546001820154600283015492909301546040805160ff93909316151583529482019390935292830152606082015280608081015b0390f35b346101605760a03660031901126101605761020a610f78565b6002610228610217610f8e565b6044359361022361131c565b61133e565b929060018060a01b03169081600052600360205260408060002060009060018060a01b0387168252602052209161026260ff845416611103565b60008181526004602090815260408083206001600160a01b038916845282528083203384529091529020805490959061029d90841115610fba565b6001840195610311848854986102b38a83611013565b9061030a60038a019b6102c88d548095611033565b9b8c9b019283549061030a6102e6876102e1858b611013565b611033565b9d8e946102f760643583101561114f565b61030560843587101561119b565b611006565b9055611006565b875561031e848254611006565b808255806103a8575060409650600160009101555b61033e85338461158b565b6001600160a01b03169161035384338561158b565b7fd765e08eef31c0983ecca03ecd166297ac485ecd5dd69e291c848f0a020333c18651806103953394888a846040919493926060820195825260208201520152565b0390a46001805582519182526020820152f35b6127108102908104612710036103d0576103c86001916040995490611033565b910155610333565b634e487b7160e01b600052601160045260246000fd5b346101605760003660031901126101605760206040516127108152f35b346101605760403660031901126101605761041f610183610f78565b6001600160a01b0391821660008181526003602090815260408083209585168352949052929092205460ff16610511576040516080810181811067ffffffffffffffff8211176104fb5760405260018152600360208201600081526040830160008152606084019160008352866000528360205260408060002060009060018060a01b0389168252602052209451151560ff801987541691161785555160018501555160028401555191015560018060a01b0316907ff4e6903dddf8034e1689a73259c54f96ff67410886872805530f383ededfec23600080a3005b634e487b7160e01b600052604160045260246000fd5b60405162461bcd60e51b81526020600482015260126024820152715a537761703a20504149525f45584953545360701b6044820152606490fd5b346101605760803660031901126101605760443560043567ffffffffffffffff821161016057366023830112156101605781600401359067ffffffffffffffff8211610160576024830192602436918460051b01011161016057606435906001600160a01b0382168203610160576105c161131c565b600283106108fe576105d2836112cc565b906105e060405192836112aa565b8382526105ec846112cc565b602083019190601f19013683378251156108e85780825284156108e85790939061062b906001600160a01b0361062188611308565b16309033906113f5565b6000198101818111946001198301929182841191906000885b6103d057818110156108775761066361065e82878d6112f8565b611308565b9060018101918282116103d0578886836107058f948260408d6106a261065e8461069a6106e7978f61065e8f918861018b936112f8565b94909c6112f8565b9860018060a01b0316809960018060a01b0316149860005260036020528160002060009160018060a01b0316825260205220956106e260ff885416611103565b6112e4565b51851561086d5760018501545b861561086257600286015491611053565b928c600095856107158a846112e4565b521561083157600292610727916112e4565b5161073760018301918254611026565b905501610745838254611006565b90555b61081d578a83898f8c8310156107f15750505050816103d05761065e83898f61077c946107768f8a906112e4565b526112f8565b906103d0578261079361065e6001958f8b906112f8565b6107a86107a0858d6112e4565b51928c6112e4565b516040519283526020830152848060a01b031691848060a01b0316907fcd3829a3813dc3cdd188fd3d01dcf3268c16be2fdd2dd21d0665418816e4606260403392a40188610644565b61077c9461065e9461081891906001600160a01b03610812888d88886112f8565b1661158b565b6112f8565b634e487b7160e01b82526011600452602482fd5b60019261083d916112e4565b5161084d60028301918254611026565b90550161085b838254611006565b9055610748565b600186015491611053565b60028501546106f4565b8683815160001981019081116103d0576108a1839161089960243591846112e4565b5110156111e7565b600180556040519182916020830190602084525180915260408301919060005b8181106108cf575050500390f35b82518452859450602093840193909201916001016108c1565b634e487b7160e01b600052603260045260246000fd5b60405162461bcd60e51b81526020600482015260136024820152720b4a6eec2e07440929cac82989288bea082a89606b1b6044820152606490fd5b3461016057602061095261094c36610f5e565b9161123d565b604051908152f35b3461016057606036600319011261016057610973610f78565b61098c61097e610f8e565b610986610fa4565b9261133e565b9060018060a01b0316600052600460205260406000209060018060a01b031660005260205260406000209060018060a01b03166000526020526040806000206001815491015482519182526020820152f35b34610160576000366003190112610160576000546040516001600160a01b039091168152602090f35b3461016057610a3e610a1836610f5e565b91809391610a278215156111e7565b80151580610a98575b610a3990610fba565b611013565b9161271083029280840461271014901517156103d057610a5d91611006565b90600254612710039161271083116103d057610a8292610a7c91611013565b90611033565b600181018091116103d057602090604051908152f35b50831515610a30565b3461016057600036600319011261016057610aba611562565b600080546001600160a01b0319811682556001600160a01b03167f8be0079c531659141344cd1fd0a4f28419497f9722a3daafe3b4186f6b6457e08280a3005b34610160576040366003190112610160576040610b15610f78565b610191610f8e565b3461016057606036600319011261016057610b36610f78565b610b3e610f8e565b610b46610fa4565b9160018060a01b0316600052600460205260406000209060018060a01b031660005260205260406000209060018060a01b03166000526020526040806000206001815491015482519182526020820152f35b34610160576000366003190112610160576020600254604051908152f35b3461016057602036600319011261016057600435610bd2611562565b6101f48111610c145760407f528d9479e9f9889a87a3c30c7f7ba537e5e59c4c85a37733b16e57c62df6130291600254908060025582519182526020820152a1005b60405162461bcd60e51b81526020600482015260136024820152720b4a6eec2e074408c8a8abea89e9ebe90928e9606b1b6044820152606490fd5b346101605760c0366003190112610160576040610c6a610f78565b610c72610f8e565b9060443590610c8e60643593610c8661131c565b60009261133e565b949060018060a01b031691828152600360205281812060018060a01b03871682526020522090610cc160ff835416611103565b60018201928354801580610f39575b15610ea1575093945b610ce5853033856113f5565b6001600160a01b031690610cfb863033856113f5565b60038301938454938415600014610e6557610d1e610d198989611013565b611440565b6103e71981019081116103d057945b8515610e14576002869284610d468b610d5b9754611026565b905501610d548a8254611026565b9055611026565b84556000818152600460209081526040808320858452825280832033845290915290208054610d8b908590611026565b80825561271081029080820461271014901517156103d057610db46001916101ed975490611033565b910155604080518681526020810188905290810184905233907f43c967b388d3a4ccad3f7ab80167852e322e5a3fde9893f530252281b2ae8b7090606090a460018055604051938493846040919493926060820195825260208201520152565b60405162461bcd60e51b8152602060048201526024808201527f5a537761703a20494e53554646494349454e545f4c49515549444954595f4d496044820152631395115160e21b6064820152608490fd5b610e7a610e728689611013565b835490611033565b610e92610e87878b611013565b600284015490611033565b90818082109118021894610d2d565b94600284015495610eb387828561123d565b96828811610ed357505050610ecc60a43586101561119b565b9394610cd9565b82610edf93985061123d565b908111610ef457610ecc60843582101561114f565b60405162461bcd60e51b815260206004820152601d60248201527f5a537761703a204558434553534956455f494e5055545f414d4f554e540000006044820152606490fd5b50600284015415610cd0565b34610160576020610952610f5836610f5e565b91611053565b606090600319011261016057600435906024359060443590565b600435906001600160a01b038216820361016057565b602435906001600160a01b038216820361016057565b604435906001600160a01b038216820361016057565b15610fc157565b60405162461bcd60e51b815260206004820152601d60248201527f5a537761703a20494e53554646494349454e545f4c49515549444954590000006044820152606490fd5b919082039182116103d057565b818102929181159184041417156103d057565b919082018092116103d057565b811561103d570490565b634e487b7160e01b600052601260045260246000fd5b9081156110bf578015918215806110b6575b61106e90610fba565b600254612710039061271082116103d0576110939161108c91611013565b9384611013565b9161271082029182046127101417156103d0576110b392610a7c91611026565b90565b50831515611065565b606460405162461bcd60e51b815260206004820152602060248201527f5a537761703a20494e53554646494349454e545f494e5055545f414d4f554e546044820152fd5b1561110a57565b60405162461bcd60e51b815260206004820152601a60248201527f5a537761703a20504149525f444f45535f4e4f545f45584953540000000000006044820152606490fd5b1561115657565b60405162461bcd60e51b815260206004820152601c60248201527f5a537761703a20494e53554646494349454e545f415f414d4f554e54000000006044820152606490fd5b156111a257565b60405162461bcd60e51b815260206004820152601c60248201527f5a537761703a20494e53554646494349454e545f425f414d4f554e54000000006044820152606490fd5b156111ee57565b60405162461bcd60e51b815260206004820152602160248201527f5a537761703a20494e53554646494349454e545f4f55545055545f414d4f554e6044820152601560fa1b6064820152608490fd5b8015611265576110b3926102e1918315158061125c57610a3990610fba565b50811515610a30565b60405162461bcd60e51b815260206004820152601a60248201527f5a537761703a20494e53554646494349454e545f414d4f554e540000000000006044820152606490fd5b90601f8019910116810190811067ffffffffffffffff8211176104fb57604052565b67ffffffffffffffff81116104fb5760051b60200190565b80518210156108e85760209160051b010190565b91908110156108e85760051b0190565b356001600160a01b03811681036101605790565b60026001541461132d576002600155565b633ee5aeb560e01b60005260046000fd5b9091906001600160a01b038084169082168082146113b05710156113ab57915b906001600160a01b0383161561137057565b60405162461bcd60e51b81526020600482015260136024820152725a537761703a205a45524f5f4144445245535360681b6044820152606490fd5b61135e565b60405162461bcd60e51b815260206004820152601a60248201527f5a537761703a204944454e544943414c5f4144445245535345530000000000006044820152606490fd5b6040516323b872dd60e01b60208201526001600160a01b03928316602482015292909116604483015260648083019390935291815261143e916114396084836112aa565b6115c6565b565b60018111156110b357806001600160801b821015611551575b600482600160401b611503941015611544575b640100000000811015611537575b6201000081101561152a575b61010081101561151e575b6010811015611512575b101561150a575b60030260011c6114b28184611033565b0160011c6114c08184611033565b0160011c6114ce8184611033565b0160011c6114dc8184611033565b0160011c6114ea8184611033565b0160011c6114f88184611033565b0160011c8092611033565b8111900390565b60011b6114a2565b811c9160021b9161149b565b60081c91811b91611491565b60101c9160081b91611486565b60201c9160101b9161147a565b60401c9160201b9161146c565b5050608081901c600160401b611459565b6000546001600160a01b0316330361157657565b63118cdaa760e01b6000523360045260246000fd5b60405163a9059cbb60e01b60208201526001600160a01b03909216602483015260448083019390935291815261143e916114396064836112aa565b906000602091828151910182855af115611621576000513d61161857506001600160a01b0381163b155b6115f75750565b635274afe760e01b60009081526001600160a01b0391909116600452602490fd5b600114156115f0565b6040513d6000823e3d90fdfea26469706673582212203c8e1ec7e1e73651b8d3891f383428c52052d968865d255a7e721574f3b85b6164736f6c634300081c0033",
  "linkReferences": {},
  "deployedLinkReferences": {}
}